:020000040000fa
:080000000002040000000000f2
:020000040000fa
:04000800e003000011
:020000040000fa
:04000c00a403000049
:020000040000fa
:04001000aa0300003f
:020000040000fa
:04001400b003000035
:020000040000fa
:04001800b60300002b
:020000040000fa
:04001c00bc03000021
:020000040000fa
:04002000e0030000f9
:020000040000fa
:04002400e0030000f5
:020000040000fa
:04002800e0030000f1
:020000040000fa
:04002c00e0030000ed
:020000040000fa
:04003000e0030000e9
:020000040000fa
:04003400e0030000e5
:020000040000fa
:04003800540300006d
:020000040000fa
:04003c00e0030000dd
:020000040000fa
:04004000e0030000d9
:020000040000fa
:04004400e0030000d5
:020000040000fa
:04004800c8020000ea
:020000040000fa
:04004c00e0030000cd
:020000040000fa
:04005000e0030000c9
:020000040000fa
:040054006c03000039
:020000040000fa
:04005800e0030000c1
:020000040000fa
:04005c00e0030000bd
:020000040000fa
:040060005c0300003d
:020000040000fa
:04006400e0030000b5
:020000040000fa
:04006800e0030000b1
:020000040000fa
:04006c00e0030000ad
:020000040000fa
:04007000e0030000a9
:020000040000fa
:04007400e0030000a5
:020000040000fa
:04007800e0030000a1
:020000040000fa
:04007c00e00300009d
:020000040000fa
:04008000e003000099
:020000040000fa
:04008400e003000095
:020000040000fa
:04008800640300000d
:020000040000fa
:04008c00e00300008d
:020000040000fa
:04009000e003000089
:020000040000fa
:04009400e003000085
:020000040000fa
:04009800ec02000076
:020000040000fa
:04009c00e00300007d
:020000040000fa
:0400a000e003000079
:020000040000fa
:0400a400e003000075
:020000040000fa
:0400a800e003000071
:020000040000fa
:0400ac00e00300006d
:020000040000fa
:0400b000e003000069
:020000040000fa
:0400b400e003000065
:020000040000fa
:0400b800e003000061
:020000040000fa
:0400bc00e00300005d
:020000040000fa
:0400c000e003000059
:020000040000fa
:0400c400e003000055
:020000040000fa
:0400c800e003000051
:020000040000fa
:0400cc00e00300004d
:020000040000fa
:0400d000e003000049
:020000040000fa
:0400d400e003000045
:020000040000fa
:0400d800e003000041
:020000040000fa
:0400dc00e00300003d
:020000040000fa
:0400e000e003000039
:020000040000fa
:0400e400e003000035
:020000040000fa
:0400e800e003000031
:020000040000fa
:0400ec00e00300002d
:020000040000fa
:0400f000e003000029
:020000040000fa
:0400f400e003000025
:020000040000fa
:0400f800e003000021
:020000040000fa
:0400fc00e00300001d
:020000040000fa
:04010000e003000018
:020000040000fa
:04010400e003000014
:020000040000fa
:04010800e003000010
:020000040000fa
:04010c00e00300000c
:020000040000fa
:04011000e003000008
:020000040000fa
:04011400e003000004
:020000040000fa
:04011800e003000000
:020000040000fa
:04011c00e0030000fc
:020000040000fa
:04012000e0030000f8
:020000040000fa
:04012400e0030000f4
:020000040000fa
:04012800e0030000f0
:020000040000fa
:04012c00e0030000ec
:020000040000fa
:04013000e0030000e8
:020000040000fa
:04013400e0030000e4
:020000040000fa
:04013800e0030000e0
:020000040000fa
:04013c00e0030000dc
:020000040000fa
:04014000e0030000d8
:020000040000fa
:04014400e0030000d4
:020000040000fa
:04014800e0030000d0
:020000040000fa
:04014c00e0030000cc
:020000040000fa
:04015000e0030000c8
:020000040000fa
:04015400e0030000c4
:020000040000fa
:04015800e0030000c0
:020000040000fa
:04015c00e0030000bc
:020000040000fa
:040160001003000088
:020000040000fa
:040164003203000062
:020000040000fa
:04020800e00300000f
:020000040000fa
:04020c00c203000029
:020000040000fa
:04021000c80300001f
:020000040000fa
:04021400ce03000015
:020000040000fa
:04021800d40300000b
:020000040000fa
:04021c00da03000001
:020000040000fa
:04022000e0030000f7
:020000040000fa
:04022400e0030000f3
:020000040000fa
:04022800e0030000ef
:020000040000fa
:04022c00e0030000eb
:020000040000fa
:04023000e0030000e7
:020000040000fa
:04023400e0030000e3
:020000040000fa
:04023800540300006b
:020000040000fa
:04023c00e0030000db
:020000040000fa
:04024000e0030000d7
:020000040000fa
:04024400e0030000d3
:020000040000fa
:04024800c8020000e8
:020000040000fa
:04024c00e0030000cb
:020000040000fa
:04025000e0030000c7
:020000040000fa
:040254006c03000037
:020000040000fa
:04025800e0030000bf
:020000040000fa
:04025c00e0030000bb
:020000040000fa
:040260005c0300003b
:020000040000fa
:04026400e0030000b3
:020000040000fa
:04026800e0030000af
:020000040000fa
:04026c00e0030000ab
:020000040000fa
:04027000e0030000a7
:020000040000fa
:04027400e0030000a3
:020000040000fa
:04027800e00300009f
:020000040000fa
:04027c00e00300009b
:020000040000fa
:04028000e003000097
:020000040000fa
:04028400e003000093
:020000040000fa
:04028800640300000b
:020000040000fa
:04028c00e00300008b
:020000040000fa
:04029000e003000087
:020000040000fa
:04029400e003000083
:020000040000fa
:04029800ec02000074
:020000040000fa
:04029c00e00300007b
:020000040000fa
:0402a000e003000077
:020000040000fa
:0402a400e003000073
:020000040000fa
:0402a800e00300006f
:020000040000fa
:0402ac00e00300006b
:020000040000fa
:0402b000e003000067
:020000040000fa
:0402b400e003000063
:020000040000fa
:0402b800e00300005f
:020000040000fa
:0402bc00e00300005b
:020000040000fa
:0402c000e003000057
:020000040000fa
:0402c400e003000053
:020000040000fa
:0402c800e00300004f
:020000040000fa
:0402cc00e00300004b
:020000040000fa
:0402d000e003000047
:020000040000fa
:0402d400e003000043
:020000040000fa
:0402d800e00300003f
:020000040000fa
:0402dc00e00300003b
:020000040000fa
:0402e000e003000037
:020000040000fa
:0402e400e003000033
:020000040000fa
:0402e800e00300002f
:020000040000fa
:0402ec00e00300002b
:020000040000fa
:0402f000e003000027
:020000040000fa
:0402f400e003000023
:020000040000fa
:0402f800e00300001f
:020000040000fa
:0402fc00e00300001b
:020000040000fa
:04030000e003000016
:020000040000fa
:04030400e003000012
:020000040000fa
:04030800e00300000e
:020000040000fa
:04030c00e00300000a
:020000040000fa
:04031000e003000006
:020000040000fa
:04031400e003000002
:020000040000fa
:04031800e0030000fe
:020000040000fa
:04031c00e0030000fa
:020000040000fa
:04032000e0030000f6
:020000040000fa
:04032400e0030000f2
:020000040000fa
:04032800e0030000ee
:020000040000fa
:04032c00e0030000ea
:020000040000fa
:04033000e0030000e6
:020000040000fa
:04033400e0030000e2
:020000040000fa
:04033800e0030000de
:020000040000fa
:04033c00e0030000da
:020000040000fa
:04034000e0030000d6
:020000040000fa
:04034400e0030000d2
:020000040000fa
:04034800e0030000ce
:020000040000fa
:04034c00e0030000ca
:020000040000fa
:04035000e0030000c6
:020000040000fa
:04035400e0030000c2
:020000040000fa
:04035800e0030000be
:020000040000fa
:04035c00e0030000ba
:020000040000fa
:040360001003000086
:020000040000fa
:040364003203000060
:020000040000fa
:10040000af8020000e7724000e018800000000005d
:10041000000020000000e000020032000001200087
:100420002002880014000700e70007000000e00039
:1004300003003a00a08120000100200002003700e4
:100440000000200001002000810f70000100320038
:1004500014000700000020000000e000020032004d
:10046000000002000000000064070200000000001d
:100470000040da000000fe004440a9000000200017
:100480000000e0000300320000002000a00188000e
:100490004440a800000006008a1f78008b1f7800e7
:1004a0000000060091018800800478000000eb0045
:1004b0001a003700e284440032a0b4009905ba0063
:1004c000e284440032a0b4009906ba00e2844400f9
:1004d00032a0b4000006eb00476fde00fd07b2005b
:1004e000636ce10003003a00ebff07000000eb0043
:1004f0000a003700606ce10004003a00005deb0088
:100500008b05e900fdff3e00040037006168e10053
:10051000010032000086eb000b00070019c7ba008b
:100520001905ba000e04e00003003a000a00e000da
:10053000e0ff3a0000000600fe07b2009e018800be
:100540008a047800f5ff3700395dba008b05e900b1
:100550000c003200295dba008b05e900080032006a
:100560000c00e00003003a00e284440032a0b40032
:10057000f5ff370019ddba008b05e900faff3a00f4
:100580008904e800e184440032a0b40000000600c1
:10059000809fbe000000fa00601680004300de006d
:1005a0006140600000c0ea00614060000080fb0024
:1005b000610060004300dd00611680000130a10091
:1005c00001007000601688008500a9000080fa0014
:1005d0004f00be0000400600809fbe000000fa00f1
:1005e000601680004200de006140600000c0ea004a
:1005f000614060000080fb00610060004200dd009f
:10060000611680000120a1000100700060168800c2
:100610008780a9000080fa004f00be00004006005d
:10062000809fbe000000fa0001408000000028000a
:10063000808f500003003a00f0ff27000040880040
:1006400002003700000028000040880000408000c1
:10065000b01f88008dc0a9000080fa004f00be00c6
:1006600000400600809fbe000000fa00114080009c
:1006700000002800808f500003003a00f0ff2700a0
:100680001040880002003700000028001040880059
:1006900010408000c01f88008de0a9000080fa0093
:1006a0004f00be00004006000000fa008480a90050
:1006b0000080fa00004006000000fa0085c0a90092
:1006c0000080fa00004006000000fa008700a90040
:1006d0000080fa0000400600809fbe000200fa0081
:1006e000cc42a8000000eb00000f7800200520009d
:1006f00020118800a0032000201188003011800004
:1007000020118800a000200020118800d0002000c7
:10071000201188000000eb00000f78000100370076
:100720001e0fe800e0ff20009e007800808f500040
:10073000fbff3600cc42a9008560a9000080fa00ca
:100740004f00be00004006000000fa008020a90013
:10075000ffff37000000fa008060a900ffff3700ac
:100760000000fa008040a900ffff37000000fa00f7
:100770008080a900ffff37000000fa0080a0a900d8
:10078000ffff37000000fa008020a900ffff3700bc
:100790000000fa008060a900ffff37000000fa00a7
:1007a0008040a900ffff37000000fa008080a90008
:1007b000ffff37000000fa0080a0a900ffff37000c
:0c07c0000000fa00ffff370000000500f9
:020000040000fa
:1007cc000000fa00e0012000303a8800213a800055
:1007dc00f0f32f0000806000203a8800213a80005e
:1007ec0000fe2f0000806000203a880032002000bc
:1007fc0080072000a1092000337420008049780074
:10080c008149780082497800103a80000001780014
:10081c000200a00060042000710520002374200059
:10082c0080497800814978008249780000000000f6
:10083c00113a800000002700808060000000230037
:10084c00808f5000faff3a0000000000113a80003f
:10085c0000022000008060000000e000fbff32007e
:10086c00513a80000070200001007000503a88005e
:10087c004ba7a9000080fa00000006000400fa0053
:10088c00000f780011079800f2e3a800f3e3a8002a
:10089c00f243a800f343a800f183a9001e007800de
:1008ac00004078000074a1008080fb00f00720005d
:1008bc0000806000821f800001f82f008100610021
:1008cc0001007000801f8800f103a8008dc0a900f2
:1008dc008de0a9001e00900000407800614060008f
:1008ec000080fb00610060004e00dd00e104800030
:1008fc0001e0a10001007000e00488001e009000df
:10090c0000407800614060000080fb004f00dd007b
:10091c00e104800001f0a10001007000e0048800f7
:10092c00f1e3a8000080fa00000006000000fa00c5
:10093c0013e1a90011e1a9001061a8001021a90080
:10094c0010c1a90081088000f0fc2f00008060001d
:10095c00800888004105800080ff2f000080600027
:10096c000000a000400588008500a9009500a800a3
:10097c0011e1a8000080fa00000006000000fa0057
:10098c0021e1a9001fe1a9001e61a8001e21a900f8
:10099c001ec1a900f1088000f0fc2f00008060004f
:1009ac00f00888009105800080ff2f000080600017
:1009bc000000a000900588008780a9009780a800ff
:1009cc001fe1a8000080fa00000006000000fa00f9
:1009dc0021e1a9002021a90020c1a9000109800062
:1009ec00f0fc2f0000806000000988009105800059
:1009fc0080ff2f00008060000000a00090058800a0
:100a0c008780a9009780a90021e1a8001821ef0098
:100a1c00f03f2000e00888000080fa00000006008b
:100a2c000000fa00011c8000f0fc2f000080600028
:100a3c00001c8800011c8000c0ff2f00008060009b
:100a4c000010a000001c880081a3a8008480a900cd
:100a5c009480a80081e3a8000080fa000000060042
:100a6c000000fa00611c8000f0fc2f000080600088
:100a7c00601c8800611c8000c0ff2f00008060009b
:100a8c000010a000601c88008da3a80085c0a900e0
:100a9c0095c0a8008de3a8000080fa0000000600b5
:100aac000000fa00c11c8000f0fc2f0000806000e8
:100abc00c01c8800c11c8000c0ff2f00008060009b
:100acc000010a000c01c880099a3a9008700a900f1
:100adc009700a80099e3a8000080fa000000060027
:100aec000000fa000080eb00601988002143a80088
:100afc0011198000f0ff210000806000101988009f
:100b0c0025e3a90090c0b30024e3b7002c03a9008f
:100b1c0011198000f0cf2f000080600010198800a0
:100b2c004119800000fe2f000080600040198800f1
:100b3c0028e3a9002043a800011980000030200000
:100b4c0001007000001988001119800030fc2f0082
:100b5c00008060001019880001198000f0f12f004e
:100b6c00008060000070a00000198800211980002e
:100b7c00f00f2e00808060000050200001007000fb
:100b8c002019880021e3a8000080fa00000006006c
:100b9c000000fa002002a9000111800090ff2f0034
:100bac00008060000011880020a2a9002062a9002a
:100bbc0011118000f0f32f000080600010118800ec
:100bcc009560a8008560a9002135800000fe2f00eb
:100bdc00008060005000b300203588003136800062
:100bec0000fe2f00008060003000b300303688001b
:100bfc0021e2a8002342a8000080fa0000000600b1
:100c0c000000fa00c842a900c862a900c8e2a80006
:100c1c00c942a8000080fa00000006000000fa009b
:100c2c00501680004700de006140600000c0ea0002
:100c3c00614060000080fb00610060004200dd004c
:100c4c00611680000120a100010070006016880070
:100c5c000080fa00000006000400fa006000b800f2
:100c6c00008fbe000400370012002000030020009b
:100c7c001e0f41005e97490070d72500210020000f
:100c8c001e01be00800f5100818f5900f6ff360007
:100c9c00601680004200de006140600000c0ea0087
:100cac00614060000080fb00610060004200dd00dc
:100cbc00611680000120a100010070006016880000
:100ccc000080fa00000006000000fa002bff07006d
:100cdc001821ef001421ef0000042000e008880028
:100cec001a21ef000080fa00000006000000fa0054
:100cfc000eff07000a21ef000621ef000004200080
:100d0c00700888000c21ef000080fa00000006003b
:100d1c000000fa00aafe070018ff07001821ef00d8
:100d2c001421ef0000242000e00888001a21ef00b5
:100d3c000080fa00000006000000fa00a0fe070088
:100d4c0000002800004088000000280010408800a7
:100d5c001100200070002000c8fe070000002800d1
:100d6c00a01f88000080fa00000006000000fa00b6
:100d7c0093fe07002aff070039ff0700603f2000a1
:100d8c00401c8800f0012000501c8800e00420006a
:100d9c00101c8800007c2000201c8800007c200097
:100dac00301c8800803f2000a01c8800f00120002f
:100dbc00b01c8800f0042000701c8800007c20000f
:100dcc00801c8800007c2000901c88008000eb00b8
:100ddc00f0002000a9fe0700f423ef000080fa00c9
:100dec00000006000000fa0075fe07000cff07006b
:100dfc00603f2000401c8800f0012000501c88003f
:100e0c00e0042000101c8800007c2000201c8800be
:100e1c00007c2000301c880011ff0700803f200060
:100e2c00a01c8800f0012000b01c8800f0042000f9
:100e3c00701c880000782000801c8800007820003e
:100e4c00901c880016ff070000302000001d880051
:100e5c00f0012000101d8800d0002000d01c88005c
:100e6c0000782000e01c880000782000f01c88002e
:100e7c008000eb00f000200080fe0700f423ef0060
:100e8c0000782000801c880000782000901c8800ce
:100e9c0013ff0700cdfe07000080fa0000000600db
:100eac000000fa0046fe070039ff07003010200052
:100ebc00401188000080fa00000006000200fa00d1
:100ecc0010002000000f78004dff070087ff07007f
:100edc0040408000e70f5000010036000828ef006a
:100eec005116800000402000008060000000e000ef
:100efc000b00320040408000e60f5000030036002b
:100f0c000828ef000000fe00f5ff3700404080008d
:100f1c000000e800404088000000fe00f0ff3700b1
:100f2c0040408000e30f50001b003200e30f5000e4
:100f3c0005003e00e10f50000e003200e10f5000a2
:100f4c000e003e0009003700e50f50002000320073
:100f5c00e50f500017003900e60f50002300320057
:100f6c00e70f5000280032002e0037002bff07003f
:100f7c002c00370038ff07002a0037001e007800cd
:100f8c000000e000030032004fff07000000eb0000
:100f9c00000f7800230037001e0078000000e000ee
:100fac00030032005aff07000000eb00000f78002e
:100fbc001c0037001e0078000000e0000300320027
:100fcc005dff07000000eb00000f780015003700f4
:100fdc001e0078000000e0000300320063ff0700f1
:100fec000000eb00000f78000e0037001e007800a8
:100ffc000000e000030032007aff07000000eb0065
:10100c00000f7800070037001e0078000000e00099
:10101c0003003200a2ff07000000eb00000f780075
:08102c0000000000aeff3700d8
:020000040000fa
:10103400000800000800000000000000c047000095
:1010440040000000020000000000f80018fb30001f
:101054001c4781005a6c6a00407689007dff7f003e
:10106400897d4000766c6a00815a1c0047fb300081
:10107400f81800000007e70004cfe300b87ea500dd
:101084009395bf00897682000180760082bf890033
:1010940093957e00a5e3b80004cf0700e7000000a5
:1010a4008047000040000000000000000000000035
:020000040000fa
:0200000401f009
:04000000ffff0000fe
:020000040000fa
:0200000401f009
:04000400ffff0000fa
:020000040000fa
:0200000401f009
:04000800ffff0000f6
:020000040000fa
:0200000401f009
:04000c0000000000f0
:020000040000fa
:0200000401f009
:040010006500000087
:020000040000fa
:0200000401f009
:040014005f00000089
:020000040000fa
:0200000401f009
:04001800f7000000ed
:020000040000fa
:0200000401f009
:04001c00dfff000002
:00000001FF
